{
  "contractName": "Exchange",
  "abi": [
    {
      "anonymous": false,
      "inputs": [
        {
          "indexed": true,
          "internalType": "address",
          "name": "provider",
          "type": "address"
        },
        {
          "indexed": false,
          "internalType": "address",
          "name": "token0",
          "type": "address"
        },
        {
          "indexed": false,
          "internalType": "uint256",
          "name": "amount0",
          "type": "uint256"
        },
        {
          "indexed": false,
          "internalType": "address",
          "name": "token1",
          "type": "address"
        },
        {
          "indexed": false,
          "internalType": "uint256",
          "name": "amount1",
          "type": "uint256"
        },
        {
          "indexed": false,
          "internalType": "uint256",
          "name": "lpTokens",
          "type": "uint256"
        }
      ],
      "name": "LiquidityAdded",
      "type": "event"
    },
    {
      "anonymous": false,
      "inputs": [
        {
          "indexed": true,
          "internalType": "address",
          "name": "user",
          "type": "address"
        },
        {
          "indexed": false,
          "internalType": "address[]",
          "name": "path",
          "type": "address[]"
        },
        {
          "indexed": false,
          "internalType": "uint256[]",
          "name": "amounts",
          "type": "uint256[]"
        }
      ],
      "name": "TokenSwap",
      "type": "event"
    },
    {
      "inputs": [
        {
          "internalType": "uint256",
          "name": "supply",
          "type": "uint256"
        },
        {
          "internalType": "address[]",
          "name": "path",
          "type": "address[]"
        }
      ],
      "name": "getAmountOutPrice",
      "outputs": [
        {
          "internalType": "uint256[]",
          "name": "",
          "type": "uint256[]"
        }
      ],
      "stateMutability": "pure",
      "type": "function",
      "constant": true
    },
    {
      "inputs": [
        {
          "internalType": "uint256",
          "name": "supply",
          "type": "uint256"
        },
        {
          "internalType": "address[]",
          "name": "path",
          "type": "address[]"
        }
      ],
      "name": "getAmountInPrice",
      "outputs": [
        {
          "internalType": "uint256[]",
          "name": "",
          "type": "uint256[]"
        }
      ],
      "stateMutability": "pure",
      "type": "function",
      "constant": true
    },
    {
      "inputs": [
        {
          "internalType": "address",
          "name": "token0",
          "type": "address"
        },
        {
          "internalType": "uint256",
          "name": "amount0",
          "type": "uint256"
        },
        {
          "internalType": "address",
          "name": "token1",
          "type": "address"
        },
        {
          "internalType": "uint256",
          "name": "amount1",
          "type": "uint256"
        }
      ],
      "name": "getEstimateLpToken",
      "outputs": [
        {
          "internalType": "uint256",
          "name": "",
          "type": "uint256"
        }
      ],
      "stateMutability": "pure",
      "type": "function",
      "constant": true
    },
    {
      "inputs": [
        {
          "internalType": "uint256",
          "name": "supply",
          "type": "uint256"
        },
        {
          "internalType": "address",
          "name": "token0",
          "type": "address"
        },
        {
          "internalType": "address",
          "name": "token1",
          "type": "address"
        }
      ],
      "name": "getEstimateOutToken",
      "outputs": [
        {
          "internalType": "uint256",
          "name": "",
          "type": "uint256"
        }
      ],
      "stateMutability": "view",
      "type": "function",
      "constant": true
    },
    {
      "inputs": [
        {
          "internalType": "uint256",
          "name": "amountIn",
          "type": "uint256"
        },
        {
          "internalType": "uint256",
          "name": "amountOutMin",
          "type": "uint256"
        },
        {
          "internalType": "address[]",
          "name": "path",
          "type": "address[]"
        },
        {
          "internalType": "address",
          "name": "to",
          "type": "address"
        },
        {
          "internalType": "uint256",
          "name": "deadline",
          "type": "uint256"
        }
      ],
      "name": "swapExactTokensForTokens",
      "outputs": [
        {
          "internalType": "uint256[]",
          "name": "amounts",
          "type": "uint256[]"
        }
      ],
      "stateMutability": "nonpayable",
      "type": "function"
    }
  ],
  "bytecode": "0x608060405234801561001057600080fd5b506118f6806100206000396000f3fe608060405234801561001057600080fd5b50600436106100575760003560e01c806306786d931461005c57806338ed17391461008c57806339692d6b146100bc5780634945b856146100ec578063811c429b1461011c575b600080fd5b61007660048036038101906100719190610f1e565b61014c565b60405161008391906115a9565b60405180910390f35b6100a660048036038101906100a1919061107a565b61022a565b6040516100b391906114a7565b60405180910390f35b6100d660048036038101906100d19190611022565b61061a565b6040516100e391906114a7565b60405180910390f35b61010660048036038101906101019190611022565b610805565b60405161011391906114a7565b60405180910390f35b61013660048036038101906101319190610fd3565b61085b565b60405161014391906115a9565b60405180910390f35b60008273ffffffffffffffffffffffffffffffffffffffff168573ffffffffffffffffffffffffffffffffffffffff1614156101bd576040517f08c379a00000000000000000000000000000000000000000000000000000000081526004016101b490611509565b60405180910390fd5b6000841180156101cd5750600082115b61020c576040517f08c379a0000000000000000000000000000000000000000000000000000000008152600401610203906114e9565b60405180910390fd5b610220828561021b91906116d4565b610a4b565b9050949350505050565b606060008054906101000a900460ff161561027a576040517f08c379a000000000000000000000000000000000000000000000000000000000815260040161027190611589565b60405180910390fd5b60016000806101000a81548160ff021916908315150217905550814211156102d7576040517f08c379a00000000000000000000000000000000000000000000000000000000081526004016102ce90611529565b60405180910390fd5b600285859050101561031e576040517f08c379a000000000000000000000000000000000000000000000000000000000815260040161031590611569565b60405180910390fd5b61036987868680806020026020016040519081016040528093929190818152602001838360200280828437600081840152601f19601f82011690508083019250505050505050610aa8565b905085816001835161037b919061172e565b815181106103b2577f4e487b7100000000000000000000000000000000000000000000000000000000600052603260045260246000fd5b602002602001015110156103fb576040517f08c379a00000000000000000000000000000000000000000000000000000000081526004016103f290611549565b60405180910390fd5b84846000818110610435577f4e487b7100000000000000000000000000000000000000000000000000000000600052603260045260246000fd5b905060200201602081019061044a9190610ef5565b73ffffffffffffffffffffffffffffffffffffffff166323b872dd3330846000815181106104a1577f4e487b7100000000000000000000000000000000000000000000000000000000600052603260045260246000fd5b60200260200101516040518463ffffffff1660e01b81526004016104c79392919061140e565b602060405180830381600087803b1580156104e157600080fd5b505af11580156104f5573d6000803e3d6000fd5b505050506040513d601f19601f820116820180604052508101906105199190610f81565b610558576040517f08c379a000000000000000000000000000000000000000000000000000000000815260040161054f906114c9565b60405180910390fd5b6105a481868680806020026020016040519081016040528093929190818152602001838360200280828437600081840152601f19601f8201169050808301925050505050505085610c7a565b3373ffffffffffffffffffffffffffffffffffffffff167fdf8461a6a4a896b1563034737c4e1129c0257c2c325e02b74caced8236baf59a8686846040516105ee9392919061146e565b60405180910390a260008060006101000a81548160ff0219169083151502179055509695505050505050565b60606002838390501015610663576040517f08c379a000000000000000000000000000000000000000000000000000000000815260040161065a90611569565b60405180910390fd5b60008383905067ffffffffffffffff8111156106a8577f4e487b7100000000000000000000000000000000000000000000000000000000600052604160045260246000fd5b6040519080825280602002602001820160405280156106d65781602001602082028036833780820191505090505b50905084816001868690506106eb919061172e565b81518110610722577f4e487b7100000000000000000000000000000000000000000000000000000000600052603260045260246000fd5b6020026020010181815250506000600185859050610740919061172e565b90505b60008111156107f957610795828281518110610788577f4e487b7100000000000000000000000000000000000000000000000000000000600052603260045260246000fd5b6020026020010151610e0f565b826001836107a3919061172e565b815181106107da577f4e487b7100000000000000000000000000000000000000000000000000000000600052603260045260246000fd5b60200260200101818152505080806107f1906117aa565b915050610743565b50809150509392505050565b606061085284848480806020026020016040519081016040528093929190818152602001838360200280828437600081840152601f19601f82011690508083019250505050505050610aa8565b90509392505050565b60008173ffffffffffffffffffffffffffffffffffffffff168373ffffffffffffffffffffffffffffffffffffffff1614156108cc576040517f08c379a00000000000000000000000000000000000000000000000000000000081526004016108c390611509565b60405180910390fd5b6000841161090f576040517f08c379a0000000000000000000000000000000000000000000000000000000008152600401610906906114e9565b60405180910390fd5b60008373ffffffffffffffffffffffffffffffffffffffff166370a08231306040518263ffffffff1660e01b815260040161094a91906113f3565b60206040518083038186803b15801561096257600080fd5b505afa158015610976573d6000803e3d6000fd5b505050506040513d601f19601f8201168201806040525081019061099a9190610faa565b905060008373ffffffffffffffffffffffffffffffffffffffff166370a08231306040518263ffffffff1660e01b81526004016109d791906113f3565b60206040518083038186803b1580156109ef57600080fd5b505afa158015610a03573d6000803e3d6000fd5b505050506040513d601f19601f82011682018060405250810190610a279190610faa565b9050818187610a3691906116d4565b610a4091906116a3565b925050509392505050565b6000806002600184610a5d919061164d565b610a6791906116a3565b90508291505b81811015610aa2578091506002818285610a8791906116a3565b610a91919061164d565b610a9b91906116a3565b9050610a6d565b50919050565b6060600282511015610aef576040517f08c379a0000000000000000000000000000000000000000000000000000000008152600401610ae690611569565b60405180910390fd5b6000825167ffffffffffffffff811115610b32577f4e487b7100000000000000000000000000000000000000000000000000000000600052604160045260246000fd5b604051908082528060200260200182016040528015610b605781602001602082028036833780820191505090505b5090508381600081518110610b9e577f4e487b7100000000000000000000000000000000000000000000000000000000600052603260045260246000fd5b60200260200101818152505060005b60018451610bbb919061172e565b811015610c6f57610c0b828281518110610bfe577f4e487b7100000000000000000000000000000000000000000000000000000000600052603260045260246000fd5b6020026020010151610e33565b82600183610c19919061164d565b81518110610c50577f4e487b7100000000000000000000000000000000000000000000000000000000600052603260045260246000fd5b6020026020010181815250508080610c67906117d4565b915050610bad565b508091505092915050565b60005b60018351610c8b919061172e565b811015610e095782600182610ca0919061164d565b81518110610cd7577f4e487b7100000000000000000000000000000000000000000000000000000000600052603260045260246000fd5b602002602001015173ffffffffffffffffffffffffffffffffffffffff1663a9059cbb8386600185610d09919061164d565b81518110610d40577f4e487b7100000000000000000000000000000000000000000000000000000000600052603260045260246000fd5b60200260200101516040518363ffffffff1660e01b8152600401610d65929190611445565b602060405180830381600087803b158015610d7f57600080fd5b505af1158015610d93573d6000803e3d6000fd5b505050506040513d601f19601f82011682018060405250810190610db79190610f81565b610df6576040517f08c379a0000000000000000000000000000000000000000000000000000000008152600401610ded906114c9565b60405180910390fd5b8080610e01906117d4565b915050610c7d565b50505050565b60006103e56103e883610e2291906116d4565b610e2c91906116a3565b9050919050565b60006103e86103e583610e4691906116d4565b610e5091906116a3565b9050919050565b600081359050610e668161187b565b92915050565b60008083601f840112610e7e57600080fd5b8235905067ffffffffffffffff811115610e9757600080fd5b602083019150836020820283011115610eaf57600080fd5b9250929050565b600081519050610ec581611892565b92915050565b600081359050610eda816118a9565b92915050565b600081519050610eef816118a9565b92915050565b600060208284031215610f0757600080fd5b6000610f1584828501610e57565b91505092915050565b60008060008060808587031215610f3457600080fd5b6000610f4287828801610e57565b9450506020610f5387828801610ecb565b9350506040610f6487828801610e57565b9250506060610f7587828801610ecb565b91505092959194509250565b600060208284031215610f9357600080fd5b6000610fa184828501610eb6565b91505092915050565b600060208284031215610fbc57600080fd5b6000610fca84828501610ee0565b91505092915050565b600080600060608486031215610fe857600080fd5b6000610ff686828701610ecb565b935050602061100786828701610e57565b925050604061101886828701610e57565b9150509250925092565b60008060006040848603121561103757600080fd5b600061104586828701610ecb565b935050602084013567ffffffffffffffff81111561106257600080fd5b61106e86828701610e6c565b92509250509250925092565b60008060008060008060a0878903121561109357600080fd5b60006110a189828a01610ecb565b96505060206110b289828a01610ecb565b955050604087013567ffffffffffffffff8111156110cf57600080fd5b6110db89828a01610e6c565b945094505060606110ee89828a01610e57565b92505060806110ff89828a01610ecb565b9150509295509295509295565b6000611118838361113c565b60208301905092915050565b600061113083836113d5565b60208301905092915050565b61114581611762565b82525050565b61115481611762565b82525050565b60006111668385611603565b9350611171826115c4565b8060005b858110156111aa576111878284611636565b611191888261110c565b975061119c836115e9565b925050600181019050611175565b5085925050509392505050565b60006111c2826115de565b6111cc8185611614565b93506111d7836115ce565b8060005b838110156112085781516111ef8882611124565b97506111fa836115f6565b9250506001810190506111db565b5085935050505092915050565b6000611222600f83611625565b91507f5472616e73666572206661696c656400000000000000000000000000000000006000830152602082019050919050565b6000611262600e83611625565b91507f496e76616c696420616d6f756e740000000000000000000000000000000000006000830152602082019050919050565b60006112a2601083611625565b91507f4964656e746963616c20746f6b656e73000000000000000000000000000000006000830152602082019050919050565b60006112e2601083611625565b91507f446561646c696e652065787069726564000000000000000000000000000000006000830152602082019050919050565b6000611322601a83611625565b91507f496e73756666696369656e74206f757470757420616d6f756e740000000000006000830152602082019050919050565b6000611362600c83611625565b91507f496e76616c6964207061746800000000000000000000000000000000000000006000830152602082019050919050565b60006113a2600e83611625565b91507f5265656e7472616e742063616c6c0000000000000000000000000000000000006000830152602082019050919050565b6113de816117a0565b82525050565b6113ed816117a0565b82525050565b6000602082019050611408600083018461114b565b92915050565b6000606082019050611423600083018661114b565b611430602083018561114b565b61143d60408301846113e4565b949350505050565b600060408201905061145a600083018561114b565b61146760208301846113e4565b9392505050565b6000604082019050818103600083015261148981858761115a565b9050818103602083015261149d81846111b7565b9050949350505050565b600060208201905081810360008301526114c181846111b7565b905092915050565b600060208201905081810360008301526114e281611215565b9050919050565b6000602082019050818103600083015261150281611255565b9050919050565b6000602082019050818103600083015261152281611295565b9050919050565b60006020820190508181036000830152611542816112d5565b9050919050565b6000602082019050818103600083015261156281611315565b9050919050565b6000602082019050818103600083015261158281611355565b9050919050565b600060208201905081810360008301526115a281611395565b9050919050565b60006020820190506115be60008301846113e4565b92915050565b6000819050919050565b6000819050602082019050919050565b600081519050919050565b6000602082019050919050565b6000602082019050919050565b600082825260208201905092915050565b600082825260208201905092915050565b600082825260208201905092915050565b60006116456020840184610e57565b905092915050565b6000611658826117a0565b9150611663836117a0565b9250827fffffffffffffffffffffffffffffffffffffffffffffffffffffffffffffffff038211156116985761169761181d565b5b828201905092915050565b60006116ae826117a0565b91506116b9836117a0565b9250826116c9576116c861184c565b5b828204905092915050565b60006116df826117a0565b91506116ea836117a0565b9250817fffffffffffffffffffffffffffffffffffffffffffffffffffffffffffffffff04831182151516156117235761172261181d565b5b828202905092915050565b6000611739826117a0565b9150611744836117a0565b9250828210156117575761175661181d565b5b828203905092915050565b600061176d82611780565b9050919050565b60008115159050919050565b600073ffffffffffffffffffffffffffffffffffffffff82169050919050565b6000819050919050565b60006117b5826117a0565b915060008214156117c9576117c861181d565b5b600182039050919050565b60006117df826117a0565b91507fffffffffffffffffffffffffffffffffffffffffffffffffffffffffffffffff8214156118125761181161181d565b5b600182019050919050565b7f4e487b7100000000000000000000000000000000000000000000000000000000600052601160045260246000fd5b7f4e487b7100000000000000000000000000000000000000000000000000000000600052601260045260246000fd5b61188481611762565b811461188f57600080fd5b50565b61189b81611774565b81146118a657600080fd5b50565b6118b2816117a0565b81146118bd57600080fd5b5056fea2646970667358221220e4a14f42ea09162aea51dac2fbb08128857027aa86dfe5b417ad572ed5cd3a5a64736f6c63430008000033",
  "immutableReferences": {},
  "source": "// SPDX-License-Identifier: MIT\npragma solidity ^0.8.0;\n\ninterface IERC20 {\n    function transferFrom(address sender, address recipient, uint256 amount) external returns (bool);\n    function transfer(address recipient, uint256 amount) external returns (bool);\n    function balanceOf(address account) external view returns (uint256);\n}\n\ncontract Exchange {\n    bool private locked;\n\n    event TokenSwap(\n        address indexed user,\n        address[] path,\n        uint256[] amounts\n    );\n    \n    event LiquidityAdded(\n        address indexed provider,\n        address token0,\n        uint256 amount0,\n        address token1,\n        uint256 amount1,\n        uint256 lpTokens\n    );\n\n    modifier noReentrant() {\n        require(!locked, \"Reentrant call\");\n        locked = true;\n        _;\n        locked = false;\n    }\n\n    function _getAmountOutPrice(uint256 supply, address[] memory path) \n        internal \n        pure \n        returns (uint256[] memory)\n    {\n        require(path.length >= 2, \"Invalid path\");\n        \n        uint256[] memory amounts = new uint256[](path.length);\n        amounts[0] = supply;\n        \n        for (uint256 i = 0; i < path.length - 1; i++) {\n            amounts[i + 1] = calculateOutputAmount(amounts[i]);\n        }\n        \n        return amounts;\n    }\n\n    function getAmountOutPrice(uint256 supply, address[] calldata path) \n        external \n        pure \n        returns (uint256[] memory)\n    {\n        return _getAmountOutPrice(supply, path);\n    }\n    \n    function getAmountInPrice(uint256 supply, address[] calldata path)\n        external\n        pure\n        returns (uint256[] memory)\n    {\n        require(path.length >= 2, \"Invalid path\");\n        \n        uint256[] memory amounts = new uint256[](path.length);\n        amounts[path.length - 1] = supply;\n        \n        for (uint256 i = path.length - 1; i > 0; i--) {\n            amounts[i - 1] = calculateInputAmount(amounts[i]);\n        }\n        \n        return amounts;\n    }\n    \n    function getEstimateLpToken(\n        address token0,\n        uint256 amount0,\n        address token1,\n        uint256 amount1\n    ) external pure returns (uint256) {\n        require(token0 != token1, \"Identical tokens\");\n        require(amount0 > 0 && amount1 > 0, \"Invalid amount\");\n        \n        return sqrt(amount0 * amount1);\n    }\n    \n    function getEstimateOutToken(\n        uint256 supply,\n        address token0,\n        address token1\n    ) external view returns (uint256) {\n        require(token0 != token1, \"Identical tokens\");\n        require(supply > 0, \"Invalid amount\");\n        \n        uint256 balance0 = IERC20(token0).balanceOf(address(this));\n        uint256 balance1 = IERC20(token1).balanceOf(address(this));\n        \n        return (supply * balance1) / balance0;\n    }\n    \n    function swapExactTokensForTokens(\n        uint256 amountIn,\n        uint256 amountOutMin,\n        address[] calldata path,\n        address to,\n        uint256 deadline\n    ) external noReentrant returns (uint256[] memory amounts) {\n        require(block.timestamp <= deadline, \"Deadline expired\");\n        require(path.length >= 2, \"Invalid path\");\n        \n        amounts = _getAmountOutPrice(amountIn, path);\n        require(amounts[amounts.length - 1] >= amountOutMin, \"Insufficient output amount\");\n        \n        require(IERC20(path[0]).transferFrom(\n            msg.sender,\n            address(this),\n            amounts[0]\n        ), \"Transfer failed\");\n        \n        _swap(amounts, path, to);\n        \n        emit TokenSwap(msg.sender, path, amounts);\n        return amounts;\n    }\n    \n    function calculateOutputAmount(uint256 inputAmount) internal pure returns (uint256) {\n        return (inputAmount * 997) / 1000;  // 0.3% fee\n    }\n    \n    function calculateInputAmount(uint256 outputAmount) internal pure returns (uint256) {\n        return (outputAmount * 1000) / 997;  // 0.3% fee\n    }\n    \n    function _swap(\n        uint256[] memory amounts,\n        address[] memory path,\n        address to\n    ) internal {\n        for (uint256 i = 0; i < path.length - 1; i++) {\n            require(IERC20(path[i + 1]).transfer(to, amounts[i + 1]), \"Transfer failed\");\n        }\n    }\n\n    function sqrt(uint256 x) internal pure returns (uint256 y) {\n        uint256 z = (x + 1) / 2;\n        y = x;\n        while (z < y) {\n            y = z;\n            z = (x / z + z) / 2;\n        }\n    }\n}\n",
  "sourcePath": "/Users/robertrahardja/Projects/tomc/exchange-project/contracts/Exchange.sol",
  "compiler": {
    "name": "solc",
    "version": "0.8.0+commit.c7dfd78e.Emscripten.clang"
  },
  "schemaVersion": "3.4.16",
  "updatedAt": "2024-12-06T06:21:39.848Z",
  "networkType": "ethereum",
  "devdoc": {
    "kind": "dev",
    "methods": {},
    "version": 1
  },
  "userdoc": {
    "kind": "user",
    "methods": {},
    "version": 1
  }
}