{
  "contractName": "Exchange",
  "abi": [
    {
      "inputs": [],
      "name": "DeadlineExpired",
      "type": "error"
    },
    {
      "inputs": [],
      "name": "IdenticalTokens",
      "type": "error"
    },
    {
      "inputs": [],
      "name": "InsufficientOutputAmount",
      "type": "error"
    },
    {
      "inputs": [],
      "name": "InvalidAmount",
      "type": "error"
    },
    {
      "inputs": [],
      "name": "InvalidPath",
      "type": "error"
    },
    {
      "inputs": [],
      "name": "Locked",
      "type": "error"
    },
    {
      "inputs": [],
      "name": "TransferFailed",
      "type": "error"
    },
    {
      "anonymous": false,
      "inputs": [
        {
          "indexed": true,
          "internalType": "address",
          "name": "provider",
          "type": "address"
        },
        {
          "indexed": false,
          "internalType": "address",
          "name": "token0",
          "type": "address"
        },
        {
          "indexed": false,
          "internalType": "uint256",
          "name": "amount0",
          "type": "uint256"
        },
        {
          "indexed": false,
          "internalType": "address",
          "name": "token1",
          "type": "address"
        },
        {
          "indexed": false,
          "internalType": "uint256",
          "name": "amount1",
          "type": "uint256"
        },
        {
          "indexed": false,
          "internalType": "uint256",
          "name": "lpTokens",
          "type": "uint256"
        }
      ],
      "name": "LiquidityAdded",
      "type": "event"
    },
    {
      "anonymous": false,
      "inputs": [
        {
          "indexed": true,
          "internalType": "address",
          "name": "user",
          "type": "address"
        },
        {
          "indexed": false,
          "internalType": "address[]",
          "name": "path",
          "type": "address[]"
        },
        {
          "indexed": false,
          "internalType": "uint256[]",
          "name": "amounts",
          "type": "uint256[]"
        }
      ],
      "name": "TokenSwap",
      "type": "event"
    },
    {
      "inputs": [
        {
          "internalType": "uint256",
          "name": "supply",
          "type": "uint256"
        },
        {
          "internalType": "address[]",
          "name": "path",
          "type": "address[]"
        }
      ],
      "name": "getAmountOutPrice",
      "outputs": [
        {
          "internalType": "uint256[]",
          "name": "",
          "type": "uint256[]"
        }
      ],
      "stateMutability": "pure",
      "type": "function"
    },
    {
      "inputs": [
        {
          "internalType": "uint256",
          "name": "supply",
          "type": "uint256"
        },
        {
          "internalType": "address[]",
          "name": "path",
          "type": "address[]"
        }
      ],
      "name": "getAmountInPrice",
      "outputs": [
        {
          "internalType": "uint256[]",
          "name": "",
          "type": "uint256[]"
        }
      ],
      "stateMutability": "pure",
      "type": "function"
    },
    {
      "inputs": [
        {
          "internalType": "address",
          "name": "token0",
          "type": "address"
        },
        {
          "internalType": "uint256",
          "name": "amount0",
          "type": "uint256"
        },
        {
          "internalType": "address",
          "name": "token1",
          "type": "address"
        },
        {
          "internalType": "uint256",
          "name": "amount1",
          "type": "uint256"
        }
      ],
      "name": "getEstimateLpToken",
      "outputs": [
        {
          "internalType": "uint256",
          "name": "",
          "type": "uint256"
        }
      ],
      "stateMutability": "pure",
      "type": "function"
    },
    {
      "inputs": [
        {
          "internalType": "uint256",
          "name": "supply",
          "type": "uint256"
        },
        {
          "internalType": "address",
          "name": "token0",
          "type": "address"
        },
        {
          "internalType": "address",
          "name": "token1",
          "type": "address"
        }
      ],
      "name": "getEstimateOutToken",
      "outputs": [
        {
          "internalType": "uint256",
          "name": "",
          "type": "uint256"
        }
      ],
      "stateMutability": "view",
      "type": "function"
    },
    {
      "inputs": [
        {
          "internalType": "uint256",
          "name": "amountIn",
          "type": "uint256"
        },
        {
          "internalType": "uint256",
          "name": "amountOutMin",
          "type": "uint256"
        },
        {
          "internalType": "address[]",
          "name": "path",
          "type": "address[]"
        },
        {
          "internalType": "address",
          "name": "to",
          "type": "address"
        },
        {
          "internalType": "uint256",
          "name": "deadline",
          "type": "uint256"
        }
      ],
      "name": "swapExactTokensForTokens",
      "outputs": [
        {
          "internalType": "uint256[]",
          "name": "amounts",
          "type": "uint256[]"
        }
      ],
      "stateMutability": "nonpayable",
      "type": "function"
    }
  ],
  "bytecode": "0x608060405234801561000f575f80fd5b506113ae8061001d5f395ff3fe608060405234801561000f575f80fd5b5060043610610055575f3560e01c806306786d931461005957806338ed17391461008957806339692d6b146100b95780634945b856146100e9578063811c429b14610119575b5f80fd5b610073600480360381019061006e9190610c37565b610149565b6040516100809190610caa565b60405180910390f35b6100a3600480360381019061009e9190610d24565b610211565b6040516100b09190610e71565b60405180910390f35b6100d360048036038101906100ce9190610e91565b61054d565b6040516100e09190610e71565b60405180910390f35b61010360048036038101906100fe9190610e91565b610694565b6040516101109190610e71565b60405180910390f35b610133600480360381019061012e9190610eee565b6106e9565b6040516101409190610caa565b60405180910390f35b5f8273ffffffffffffffffffffffffffffffffffffffff168573ffffffffffffffffffffffffffffffffffffffff16036101af576040517f5c6d7b7300000000000000000000000000000000000000000000000000000000815260040160405180910390fd5b5f8414806101bc57505f82145b156101f3576040517f2c5211c600000000000000000000000000000000000000000000000000000000815260040160405180910390fd5b61020782856102029190610f6b565b6108a0565b9050949350505050565b60605f8054906101000a900460ff1615610257576040517f0f2e5b6c00000000000000000000000000000000000000000000000000000000815260040160405180910390fd5b60015f806101000a81548160ff021916908315150217905550814211156102aa576040517f1ab7da6b00000000000000000000000000000000000000000000000000000000815260040160405180910390fd5b60028585905010156102e8576040517f20db826700000000000000000000000000000000000000000000000000000000815260040160405180910390fd5b610332878686808060200260200160405190810160405280939291908181526020018383602002808284375f81840152601f19601f820116905080830192505050505050506108fc565b90508581600183516103449190610fac565b8151811061035557610354610fdf565b5b60200260200101511015610395576040517f42301c2300000000000000000000000000000000000000000000000000000000815260040160405180910390fd5b5f85855f8181106103a9576103a8610fdf565b5b90506020020160208101906103be919061100c565b73ffffffffffffffffffffffffffffffffffffffff166323b872dd3330855f815181106103ee576103ed610fdf565b5b60200260200101516040518463ffffffff1660e01b815260040161041493929190611046565b6020604051808303815f875af1158015610430573d5f803e3d5ffd5b505050506040513d601f19601f8201168201806040525081019061045491906110b0565b90508061048d576040517f90b8ec1800000000000000000000000000000000000000000000000000000000815260040160405180910390fd5b6104d8828787808060200260200160405190810160405280939291908181526020018383602002808284375f81840152601f19601f8201169050808301925050505050505086610a2a565b3373ffffffffffffffffffffffffffffffffffffffff167fdf8461a6a4a896b1563034737c4e1129c0257c2c325e02b74caced8236baf59a87878560405161052293929190611197565b60405180910390a2505f805f6101000a81548160ff0219169083151502179055509695505050505050565b6060600283839050101561058d576040517f20db826700000000000000000000000000000000000000000000000000000000815260040160405180910390fd5b5f8383905067ffffffffffffffff8111156105ab576105aa6111ce565b5b6040519080825280602002602001820160405280156105d95781602001602082028036833780820191505090505b50905084816001868690506105ee9190610fac565b815181106105ff576105fe610fdf565b5b6020026020010181815250505f60018585905061061c9190610fac565b90505b5f8111156106885761064a82828151811061063d5761063c610fdf565b5b6020026020010151610b5c565b826001836106589190610fac565b8151811061066957610668610fdf565b5b6020026020010181815250508080610680906111fb565b91505061061f565b50809150509392505050565b60606106e0848484808060200260200160405190810160405280939291908181526020018383602002808284375f81840152601f19601f820116905080830192505050505050506108fc565b90509392505050565b5f8173ffffffffffffffffffffffffffffffffffffffff168373ffffffffffffffffffffffffffffffffffffffff160361074f576040517f5c6d7b7300000000000000000000000000000000000000000000000000000000815260040160405180910390fd5b5f8403610788576040517f2c5211c600000000000000000000000000000000000000000000000000000000815260040160405180910390fd5b5f8373ffffffffffffffffffffffffffffffffffffffff166370a08231306040518263ffffffff1660e01b81526004016107c29190611222565b602060405180830381865afa1580156107dd573d5f803e3d5ffd5b505050506040513d601f19601f82011682018060405250810190610801919061124f565b90505f8373ffffffffffffffffffffffffffffffffffffffff166370a08231306040518263ffffffff1660e01b815260040161083d9190611222565b602060405180830381865afa158015610858573d5f803e3d5ffd5b505050506040513d601f19601f8201168201806040525081019061087c919061124f565b905081818761088b9190610f6b565b61089591906112a7565b925050509392505050565b5f8060026001846108b191906112d7565b6108bb91906112a7565b90508291505b818110156108f65780915060028182856108db91906112a7565b6108e591906112d7565b6108ef91906112a7565b90506108c1565b50919050565b606060028251101561093a576040517f20db826700000000000000000000000000000000000000000000000000000000815260040160405180910390fd5b5f825167ffffffffffffffff811115610956576109556111ce565b5b6040519080825280602002602001820160405280156109845781602001602082028036833780820191505090505b50905083815f8151811061099b5761099a610fdf565b5b6020026020010181815250505f5b600184516109b79190610fac565b811015610a1f576109e18282815181106109d4576109d3610fdf565b5b6020026020010151610b7f565b826001836109ef91906112d7565b81518110610a00576109ff610fdf565b5b6020026020010181815250508080610a179061130a565b9150506109a9565b508091505092915050565b5f5b60018351610a3a9190610fac565b811015610b56575f83600183610a5091906112d7565b81518110610a6157610a60610fdf565b5b602002602001015173ffffffffffffffffffffffffffffffffffffffff1663a9059cbb8487600186610a9391906112d7565b81518110610aa457610aa3610fdf565b5b60200260200101516040518363ffffffff1660e01b8152600401610ac9929190611351565b6020604051808303815f875af1158015610ae5573d5f803e3d5ffd5b505050506040513d601f19601f82011682018060405250810190610b0991906110b0565b905080610b42576040517f90b8ec1800000000000000000000000000000000000000000000000000000000815260040160405180910390fd5b508080610b4e9061130a565b915050610a2c565b50505050565b5f6103e56103e883610b6e9190610f6b565b610b7891906112a7565b9050919050565b5f6103e86103e583610b919190610f6b565b610b9b91906112a7565b9050919050565b5f80fd5b5f80fd5b5f73ffffffffffffffffffffffffffffffffffffffff82169050919050565b5f610bd382610baa565b9050919050565b610be381610bc9565b8114610bed575f80fd5b50565b5f81359050610bfe81610bda565b92915050565b5f819050919050565b610c1681610c04565b8114610c20575f80fd5b50565b5f81359050610c3181610c0d565b92915050565b5f805f8060808587031215610c4f57610c4e610ba2565b5b5f610c5c87828801610bf0565b9450506020610c6d87828801610c23565b9350506040610c7e87828801610bf0565b9250506060610c8f87828801610c23565b91505092959194509250565b610ca481610c04565b82525050565b5f602082019050610cbd5f830184610c9b565b92915050565b5f80fd5b5f80fd5b5f80fd5b5f8083601f840112610ce457610ce3610cc3565b5b8235905067ffffffffffffffff811115610d0157610d00610cc7565b5b602083019150836020820283011115610d1d57610d1c610ccb565b5b9250929050565b5f805f805f8060a08789031215610d3e57610d3d610ba2565b5b5f610d4b89828a01610c23565b9650506020610d5c89828a01610c23565b955050604087013567ffffffffffffffff811115610d7d57610d7c610ba6565b5b610d8989828a01610ccf565b94509450506060610d9c89828a01610bf0565b9250506080610dad89828a01610c23565b9150509295509295509295565b5f81519050919050565b5f82825260208201905092915050565b5f819050602082019050919050565b610dec81610c04565b82525050565b5f610dfd8383610de3565b60208301905092915050565b5f602082019050919050565b5f610e1f82610dba565b610e298185610dc4565b9350610e3483610dd4565b805f5b83811015610e64578151610e4b8882610df2565b9750610e5683610e09565b925050600181019050610e37565b5085935050505092915050565b5f6020820190508181035f830152610e898184610e15565b905092915050565b5f805f60408486031215610ea857610ea7610ba2565b5b5f610eb586828701610c23565b935050602084013567ffffffffffffffff811115610ed657610ed5610ba6565b5b610ee286828701610ccf565b92509250509250925092565b5f805f60608486031215610f0557610f04610ba2565b5b5f610f1286828701610c23565b9350506020610f2386828701610bf0565b9250506040610f3486828701610bf0565b9150509250925092565b7f4e487b71000000000000000000000000000000000000000000000000000000005f52601160045260245ffd5b5f610f7582610c04565b9150610f8083610c04565b9250828202610f8e81610c04565b91508282048414831517610fa557610fa4610f3e565b5b5092915050565b5f610fb682610c04565b9150610fc183610c04565b9250828203905081811115610fd957610fd8610f3e565b5b92915050565b7f4e487b71000000000000000000000000000000000000000000000000000000005f52603260045260245ffd5b5f6020828403121561102157611020610ba2565b5b5f61102e84828501610bf0565b91505092915050565b61104081610bc9565b82525050565b5f6060820190506110595f830186611037565b6110666020830185611037565b6110736040830184610c9b565b949350505050565b5f8115159050919050565b61108f8161107b565b8114611099575f80fd5b50565b5f815190506110aa81611086565b92915050565b5f602082840312156110c5576110c4610ba2565b5b5f6110d28482850161109c565b91505092915050565b5f82825260208201905092915050565b5f819050919050565b6110fd81610bc9565b82525050565b5f61110e83836110f4565b60208301905092915050565b5f6111286020840184610bf0565b905092915050565b5f602082019050919050565b5f61114783856110db565b9350611152826110eb565b805f5b8581101561118a57611167828461111a565b6111718882611103565b975061117c83611130565b925050600181019050611155565b5085925050509392505050565b5f6040820190508181035f8301526111b081858761113c565b905081810360208301526111c48184610e15565b9050949350505050565b7f4e487b71000000000000000000000000000000000000000000000000000000005f52604160045260245ffd5b5f61120582610c04565b91505f820361121757611216610f3e565b5b600182039050919050565b5f6020820190506112355f830184611037565b92915050565b5f8151905061124981610c0d565b92915050565b5f6020828403121561126457611263610ba2565b5b5f6112718482850161123b565b91505092915050565b7f4e487b71000000000000000000000000000000000000000000000000000000005f52601260045260245ffd5b5f6112b182610c04565b91506112bc83610c04565b9250826112cc576112cb61127a565b5b828204905092915050565b5f6112e182610c04565b91506112ec83610c04565b925082820190508082111561130457611303610f3e565b5b92915050565b5f61131482610c04565b91507fffffffffffffffffffffffffffffffffffffffffffffffffffffffffffffffff820361134657611345610f3e565b5b600182019050919050565b5f6040820190506113645f830185611037565b6113716020830184610c9b565b939250505056fea2646970667358221220dd5cf86468726fe4ebf030894d1650c84d0bfbe206e676f601f8a1f0fbef1fe064736f6c63430008150033",
  "immutableReferences": {},
  "source": "// SPDX-License-Identifier: MIT\npragma solidity 0.8.21;\n\ninterface IERC20 {\n    function transferFrom(address sender, address recipient, uint256 amount) external returns (bool);\n    function transfer(address recipient, uint256 amount) external returns (bool);\n    function balanceOf(address account) external view returns (uint256);\n}\n\ncontract Exchange {\n    error InvalidPath();\n    error InvalidAmount();\n    error IdenticalTokens();\n    error DeadlineExpired();\n    error InsufficientOutputAmount();\n    error TransferFailed();\n    error Locked();\n\n    bool private locked;\n\n    event TokenSwap(\n        address indexed user,\n        address[] path,\n        uint256[] amounts\n    );\n    \n    event LiquidityAdded(\n        address indexed provider,\n        address token0,\n        uint256 amount0,\n        address token1,\n        uint256 amount1,\n        uint256 lpTokens\n    );\n\n    modifier noReentrant() {\n        if(locked) revert Locked();\n        locked = true;\n        _;\n        locked = false;\n    }\n\n    function _getAmountOutPrice(uint256 supply, address[] memory path) \n        internal \n        pure \n        returns (uint256[] memory)\n    {\n        if (path.length < 2) revert InvalidPath();\n        \n        uint256[] memory amounts = new uint256[](path.length);\n        amounts[0] = supply;\n        \n        for (uint256 i = 0; i < path.length - 1; i++) {\n            amounts[i + 1] = calculateOutputAmount(amounts[i]);\n        }\n        \n        return amounts;\n    }\n\n    function getAmountOutPrice(uint256 supply, address[] calldata path) \n        external \n        pure \n        returns (uint256[] memory)\n    {\n        return _getAmountOutPrice(supply, path);\n    }\n    \n    function getAmountInPrice(uint256 supply, address[] calldata path)\n        external\n        pure\n        returns (uint256[] memory)\n    {\n        if (path.length < 2) revert InvalidPath();\n        \n        uint256[] memory amounts = new uint256[](path.length);\n        amounts[path.length - 1] = supply;\n        \n        for (uint256 i = path.length - 1; i > 0; i--) {\n            amounts[i - 1] = calculateInputAmount(amounts[i]);\n        }\n        \n        return amounts;\n    }\n    \n    function getEstimateLpToken(\n        address token0,\n        uint256 amount0,\n        address token1,\n        uint256 amount1\n    ) external pure returns (uint256) {\n        if (token0 == token1) revert IdenticalTokens();\n        if (amount0 == 0 || amount1 == 0) revert InvalidAmount();\n        \n        return sqrt(amount0 * amount1);\n    }\n    \n    function getEstimateOutToken(\n        uint256 supply,\n        address token0,\n        address token1\n    ) external view returns (uint256) {\n        if (token0 == token1) revert IdenticalTokens();\n        if (supply == 0) revert InvalidAmount();\n        \n        uint256 balance0 = IERC20(token0).balanceOf(address(this));\n        uint256 balance1 = IERC20(token1).balanceOf(address(this));\n        \n        return (supply * balance1) / balance0;\n    }\n    \n    function swapExactTokensForTokens(\n        uint256 amountIn,\n        uint256 amountOutMin,\n        address[] calldata path,\n        address to,\n        uint256 deadline\n    ) external noReentrant returns (uint256[] memory amounts) {\n        if (block.timestamp > deadline) revert DeadlineExpired();\n        if (path.length < 2) revert InvalidPath();\n        \n        amounts = _getAmountOutPrice(amountIn, path);\n        if (amounts[amounts.length - 1] < amountOutMin) revert InsufficientOutputAmount();\n        \n        bool success = IERC20(path[0]).transferFrom(\n            msg.sender,\n            address(this),\n            amounts[0]\n        );\n        if (!success) revert TransferFailed();\n        \n        _swap(amounts, path, to);\n        \n        emit TokenSwap(msg.sender, path, amounts);\n        return amounts;\n    }\n    \n    function calculateOutputAmount(uint256 inputAmount) internal pure returns (uint256) {\n        return (inputAmount * 997) / 1000;  // 0.3% fee\n    }\n    \n    function calculateInputAmount(uint256 outputAmount) internal pure returns (uint256) {\n        return (outputAmount * 1000) / 997;  // 0.3% fee\n    }\n    \n    function _swap(\n        uint256[] memory amounts,\n        address[] memory path,\n        address to\n    ) internal {\n        for (uint256 i = 0; i < path.length - 1; i++) {\n            bool success = IERC20(path[i + 1]).transfer(to, amounts[i + 1]);\n            if (!success) revert TransferFailed();\n        }\n    }\n\n    function sqrt(uint256 x) internal pure returns (uint256 y) {\n        uint256 z = (x + 1) / 2;\n        y = x;\n        while (z < y) {\n            y = z;\n            z = (x / z + z) / 2;\n        }\n    }\n}\n",
  "sourcePath": "/Users/robertrahardja/Projects/tomc/exchange-project/contracts/Exchange.sol",
  "compiler": {
    "name": "solc",
    "version": "0.8.21+commit.d9974bed.Emscripten.clang"
  },
  "schemaVersion": "3.4.16",
  "updatedAt": "2024-12-06T05:54:54.242Z",
  "devdoc": {
    "kind": "dev",
    "methods": {},
    "version": 1
  },
  "userdoc": {
    "kind": "user",
    "methods": {},
    "version": 1
  }
}